:0F0E4B007DA57C06ED1D70011C144C70F7DFF1C6
:010E5A002275
:06099E008B158A16891773
:1009A400EF64016003020B35752B01F52CF52DF571
:1009B4002EF52FF530F5317F28785AE4F608DFFC60
:1009C4007F287832E4F608DFFCAB15AA16A91712C3
:1009D4000800D394C040037F012290000A12081932
:1009E400B40104D2BC8002C2BC120800FFE59854D2
:1009F4003F4FF598EF64C06008EF64406003020A5B
:100A0400B99000021209387F007E607D547C001288
:100A140008828F1B8E1A8D198C18E4FFFE7D01FC51
:100A2400AB1BAA1AA919A818C312091440037F0200
:100A340022C3E4951BF51BE4951AF51A7401951964
:100A4400F519E49518F518AB15AA16A91790000125
:100A5400120819FB6401702CC28E538EFE5389BF99
:100A64005389CF438E40AF1BAE1AAD19AC1878082A
:100A74001209258F8D851B8BC2AB5389BF538FFD04
:100A8400D28E8065EB64027029538EEF438E01533E
:100A94008EF7438E04AF1BAE1AAD19AC187808124A
:100AA40009258FD6851BD753AFFB538EF7438E1082
:100AB40080377F0222AB15AA16A917120800FF700F
:100AC40013900008120819B40105438E20801A53AC
:100AD4008EDF8015EFB48011900008120819B4015C
:100AE40005438780800353877FAB15AA16A9179007
:100AF4000009120819B40104D2AC8002C2AC9000FF
:100B040007120819B40104D29C8002C29C90000B05
:100B140012081954C0FFE5A2543F4FF5A290000CEF
:100B2400120819B4010543971080035397EF7F000F
:030B3400227F031A
:010B3700229B
:100E0200745A252DF8A607052DE52DC39428400315
:0D0E1200E4F52DE52E7005752E01D2992214
:100E3800120800FF600C120E02740129F9E43AFA54
:030E480080EE2217
:03002300020D15B6
:100D1500C0E0C0D075D000C000C00730981DC29893
:100D2500E5317017E52FC394284003752F00AF2FC9
:100D3500052F74322FF8A699753005309921C2997F
:100D4500E52C652D6016745A252CF8E6F599052CC9
:100D5500E52CC394284008752C008003752E00D01F
:080D650007D000D0D0D0E0322D
:020E8F003A0027
:030E8B00011E0045
:100DB200750840750902750D00750CC2750B017539
:100DC2000A00750F01E4F510751101F512F513F51E
:0B0DD20014FB7A0079087F0102099EE3
:100D6D00120E5B120DB2D2AFD2B3120BC4120E1F04
:100D7D00E51E75F00A84E5F02430FF120E307F2C4D
:100D8D00120E30120C40120E1FE51E75F00A84E58E
:100D9D00F02430FF120E307BFF7A0E798F120DDDAD
:050DAD00120E5B80C581
:100CBC00E4F50875210075220220B30E0522E52209
:100CCC00AE2170020521144E70EF120E82E4F52550
:100CDC0030B30375250175210075220230B30E0562
:100CEC0022E522AE2170020521144E70EFE522643C
:100CFC000145216013E52A25E0F52AE525422A0560
:080D0C0008E508C3940840ABA0
:010D140022BC
:100BC400C2B3120E6AD2B3120E78D2B320B36A75CE
:100BD400210075220220B30E0522E522AE21700207
:100BE4000521144E70EF75210075220230B30E05F5
:100BF40022E522AE2170020521144E70EF120CBCC6
:100C0400852A28120CBC852A29120CBC852A1F129D
:100C14000CBC852A20120CBC852A24D2B3E51F25DE
:100C24002025282529F525B5240F8528268529275B
:0C0C3400851F1C85201D852423AF1C2279
:100C4000C2B3120E6AD2B3120E78D2B320B36A7551
:100C5000210075220220B30E0522E522AE2170028A
:100C60000521144E70EF75210075220230B30E0578
:100C700022E522AE2170020521144E70EF120CBC49
:100C8000852A28120CBC852A29120CBC852A1F1221
:100C90000CBC852A20120CBC852A24D2B3E51F2562
:100CA0002025282529F525B5240F852826852927DF
:0C0CB000851F1C85201D852423AF2622F3
:100E1F008F1EE51E75F06484E5F075F00A842430AA
:010E2F00FFC3
:080E30008F993099FDC299224F
:100DDD008B088A09890AAB08AA09A90A12080060BA
:100DED0013050AE50A7002050914F9120800FF122D
:050DFD000E3080E2222F
:080E82007F017EA2DEFEDFFC11
:010E8A002245
:090E7800007F017ED9DEFEDFFCE3
:010E8100224E
:0D0E6A00007F027E847D43DDFEDEFCDFFAAA
:010E77002258
:0E0E5B0000007F557E0C7D9BDDFEDEFCDFFA85
:010E69002266
:03000000020B38B8
:0C0B3800787FE4F6D8FD758181020B7F08
:10080000BB010689828A83E0225002E722BBFE02F6
:09081000E32289828A83E4932229
:10081900BB010CE58229F582E5833AF583E0225094
:1008290006E92582F8E622BBFE06E92582F8E222DE
:0D083900E58229F582E5833AF583E49322F8
:1008460075F008758200EF2FFFEE33FECD33CDCC69
:1008560033CCC58233C5829BED9AEC99E5829840EC
:100866000CF582EE9BFEED9AFDEC99FC0FD5F0D6C9
:10087600E4CEFBE4CDFAE4CCF9A88222B800C1B9F3
:100886000059BA002DEC8BF084CFCECDFCE5F0CB31
:10089600F97818EF2FFFEE33FEED33FDEC33FCEB6A
:1008A60033FB10D703994004EB99FB0FD8E5E4F925
:1008B600FA227818EF2FFFEE33FEED33FDEC33FC12
:1008C600C933C910D7059BE99A4007EC9BFCE99A06
:1008D600F90FD8E0E4C9FAE4CCFB2275F010EF2F4B
:1008E600FFEE33FEED33FDCC33CCC833C810D7074B
:1008F6009BEC9AE899400AED9BFDEC9AFCE899F886
:0E0906000FD5F0DAE4CDFBE4CCFAE4C8F92218
:10091400EB9FF5F0EA9E42F0E99D42F0E89C45F039
:0109240022B0
:10092500E8600FECC313FCED13FDEE13FEEF13FFB0
:03093500D8F122D4
:10093800BB010DE58229F582E5833AF58302097545
:100948005007E92582F8020968BBFE07E92582F805
:10095800020981E58229F582E5833AF58302098E49
:100B4400020D6DE493A3F8E493A34003F68001F24D
:100B540008DFF48029E493A3F85407240CC8C333B2
:100B6400C4540F4420C8834004F456800146F6DF81
:100B7400E4800B0102040810204080900E8BE47E78
:100B8400019360BCA3FF543F30E509541FFEE49376
:100B9400A360010ECF54C025E060A840B8E493A33D
:100BA400FAE493A3F8E493A3C8C582C8CAC583CA68
:100BB400F0A3C8C582C8CAC583CADFE9DEE780BE20
:010E8E000063
:0D096800E6FB08E6F908E6FA08E6CBF822FF
:0C097500E0F8A3E0F9A3E0FAA3E0FB2205
:0D098100E2FB08E2F908E2FA08E2CBF822F6
:10098E00E493F8740193F9740293FA740393FB22BF
:00000001FF
